:100000000C9446000C9465000C9465000C946500FB
:100010000C9465000C9465000C9465000C946500CC
:100020000C9465000C9465000C9465000C946500BC
:100030000C9465000C94E3000C9465000C9465002E
:100040000C9465000C9465000C9465000C9465009C
:100050000C9465000C9465000C9465000C9465008C
:100060000C9465000C9465000C9465000C9465007C
:100070000C9465000C9465000C9465000C9465006C
:100080000C9465000C9465000C94650011241FBE4F
:10009000CFEFD0E4DEBFCDBF11E0A0E0B1E0E4EEF1
:1000A000FBE000E00BBF02C007900D92AC31B1073E
:1000B000D9F721E0ACE1B1E001C01D92AC35B20747
:1000C000E1F70E945A040C94F0050C940000CF93C1
:1000D000DF9300D000D0CDB7DEB769837A838B83FE
:1000E0009C8389819A81AB81BC818093000190932C
:1000F0000101A0930201B09303018091000190914E
:100100000101A0910201B091030180931D01909320
:100110001E01A0931F01B093200100000F900F90CB
:100120000F900F90DF91CF910895CF93DF93CDB7CC
:10013000DEB781E890E02BE0FC01208388E890E0C6
:100140002DE730E0FC01318320838FE690E022E050
:10015000FC01208384E890E0FC01118210828091F0
:10016000000190910101A0910201B09103018093DF
:100170001D0190931E01A0931F01B09320018FE5F4
:1001800090E02FE530E0F90120812068FC01208318
:100190000000DF91CF910895CF93DF93CDB7DEB705
:1001A00081E890E0FC0110820000DF91CF9108957A
:1001B000CF93DF93CDB7DEB781E080931C010000C1
:1001C000DF91CF9108951F920F9200905F000F92E0
:1001D000112400905B000F922F933F934F935F93F6
:1001E0006F937F938F939F93AF93BF93EF93FF93FF
:1001F000CF93DF93CDB7DEB780911D0190911E01A3
:10020000A0911F01B09120010197A109B10980932C
:100210001D0190931E01A0931F01B09320018091B6
:100220001D0190911E01A0911F01B0912001892B09
:100230008A2B8B2B91F40E94D80080910001909121
:100240000101A0910201B091030180931D019093DF
:100250001E01A0931F01B09320010000DF91CF91F8
:10026000FF91EF91BF91AF919F918F917F916F918E
:100270005F914F913F912F910F9000925B000F90F3
:1002800000925F000F901F901895CF93DF93CDB72A
:10029000DEB72C970FB6F894DEBF0FBECDBF6D83CF
:1002A0007E838F83988729873A874B875C878D81E8
:1002B0009E81AF81B88529853A854B855C85BC01D7
:1002C000CD010E94CE05DC01CB0189839A83AB83EB
:1002D000BC8389819A81AB81BC81892B8A2B8B2B32
:1002E00029F489859A85AB85BC8511C089859A8555
:1002F000AB85BC858D839E83AF83B88789819A81C6
:10030000AB81BC8189879A87AB87BC87D0CFBC0182
:10031000CD012C960FB6F894DEBF0FBECDBFDF9196
:10032000CF910895CF93DF9300D01F92CDB7DEB762
:1003300089836A834B838B81882371F08A81282F7C
:1003400030E081E090E002C0880F991F2A95E2F723
:10035000982F8981892B0EC08A81282F30E081E077
:1003600090E002C0880F991F2A95E2F7982F909588
:10037000898189230F900F900F90DF91CF9108957D
:10038000CF93DF9300D0CDB7DEB789836A838A81AC
:10039000282F30E081E090E002C0880F991F2A9555
:1003A000E2F7982F898189230F900F90DF91CF91E9
:1003B00008950F931F93CF93DF93CDB7DEB708E275
:1003C00010E040E064E08FEF0E949201F80180832A
:1003D000000086E290E0FC018081809560E00E9450
:1003E000C001882311F081E3D3C086E290E0FC01D4
:1003F0008081809561E00E94C001882311F084E330
:10040000C7C086E290E0FC018081809562E00E9496
:10041000C001882311F087E3BBC086E290E0FC01B5
:100420008081809563E00E94C001882311F08AE2F8
:10043000AFC008E210E040E065E08FEF0E9492015B
:10044000F8018083000086E290E0FC0180818095C5
:1004500060E00E94C001882311F082E399C086E227
:1004600090E0FC018081809561E00E94C0018823BA
:1004700011F085E38DC086E290E0FC0180818095DB
:1004800062E00E94C001882311F088E381C086E207
:1004900090E0FC018081809563E00E94C001882388
:1004A00011F080E375C008E210E040E066E08FEFF5
:1004B0000E949201F8018083000086E290E0FC0136
:1004C0008081809560E00E94C001882311F083E361
:1004D0005FC086E290E0FC018081809561E00E942F
:1004E000C001882311F086E353C086E290E0FC014E
:1004F0008081809562E00E94C001882311F089E329
:1005000047C086E290E0FC018081809563E00E9414
:10051000C001882311F083E23BC008E210E040E014
:1005200067E08FEF0E949201F8018083000086E26D
:1005300090E0FC018081809560E00E94C0018823EA
:1005400011F081E425C086E290E0FC018081809575
:1005500061E00E94C001882311F082E419C086E2A4
:1005600090E0FC018081809562E00E94C0018823B8
:1005700011F083E40DC086E290E0FC01808180955B
:1005800063E00E94C001882311F084E401C080E090
:10059000DF91CF911F910F910895CF93DF9300D0FA
:1005A0001F92CDB7DEB789837B836A8389818A30C6
:1005B00031F48A819B81BC018DE00E94CD0280ECE8
:1005C00090E0FC018081882F90E080729927892B30
:1005D000B1F386EC90E02981FC01208380E090E07B
:1005E0000F900F900F90DF91CF910895CF93DF93ED
:1005F00000D0CDB7DEB79A83898389819A81813013
:10060000910559F082309105E1F0892B09F061C024
:1006100081E090E09A8389835CC080E290E0FC01F5
:100620008081882F90E082709927892B29F482E0BD
:1006300090E09A8389834DC081E090E09A8389831A
:1006400048C080912901882F90E08E5E9E4FFC016A
:10065000908180912A01891750F482E090E09A837A
:10066000898380912A018F5F80932A0131C081E0C4
:1006700090E09A83898310922A0180912901882F22
:1006800090E020912901222F30E02E5E3E4FF901AB
:10069000208121508E5E9E4FFC0120838091290194
:1006A000882F90E020912901222F30E02F5D3E4FCE
:1006B000F9012081222F30E0220F331F21608F5D4E
:1006C0009E4FFC012083109229018FE780931A012D
:1006D000000089819A818130910519F0029729F0F3
:1006E0000AC080E880931B0106C080911B0186959B
:1006F00080931B01000088E290E020911B01FC0127
:10070000208389819A810F900F90DF91CF91089576
:10071000CF93DF9300D0CDB7DEB79A8389838981E9
:100720009A8182309105C1F1833091052CF40097B4
:1007300059F0019771F07EC08330910509F440C0F3
:10074000049709F451C076C081E090E09A838983D0
:1007500071C080E290E0FC018081882F90E0817080
:100760009927892B29F482E090E09A83898362C0DB
:1007700080E290E0FC018081882F90E084709927CE
:10078000892B29F483E090E09A83898353C081E028
:1007900090E09A8389834EC080E290E0FC018081E2
:1007A000882F90E081709927892B29F484E090E0CC
:1007B0009A8389833FC081E090E09A8389833AC01D
:1007C00080E290E0FC018081882F90E0847099277E
:1007D000892B29F484E090E09A8389832BC081E0FF
:1007E00090E09A83898326C080E290E0FC018081BA
:1007F000882F90E08170992731E0892B09F430E04F
:1008000080E290E0FC018081882F90E0847099273D
:1008100021E0892B09F420E0832F8223882329F00B
:1008200081E090E09A83898304C084E090E09A8319
:100830008983000089819A818230910531F083306B
:10084000910534F1039789F028C080911A018E3FF9
:1008500009F180911A018695806880931A01809130
:1008600029018F5F8093290115C080911A018F376C
:1008700099F080911A01882F90E0880F991F81606C
:1008800080931A018091290181508093290104C02D
:10089000000003C0000001C000008BE290E0209146
:1008A0001A01FC01208389819A810F900F90DF91BA
:1008B000CF9108950F931F93CF93DF93CDB7DEB7FA
:1008C0002D970FB6F894DEBF0FBECDBF81E290E04A
:1008D000FC01108282E290E02FEFFC01208387E28E
:1008E00090E02FEFFC01208388E290E0FC01108271
:1008F0008AE290E02FEFFC0120838BE290E0FC0184
:1009000010828BE291E09B878A8786E391E09D8746
:100910008C8782E090E098878F838FEF8987109291
:100920002B0184E690E0A0E0B0E080932C0190934E
:100930002D01A0932E01B0932F0180912C01909155
:100940002D01A0912E01B0912F0180933001909341
:100950003101A0933201B093330186EF92E090937E
:100960003501809334011092360182E390E0A0E0DB
:10097000B0E08093370190933801A0933901B09390
:100980003A018091370190913801A0913901B091DD
:100990003A0180933B0190933C01A0933D01B093B9
:1009A0003E0188E893E09093400180933F018A855F
:1009B0009B85FC0181819281A381B48189839A8383
:1009C000AB83BC8381E080932A0127C080912A01F8
:1009D000882F90E0880F991F9E012F5F3F4F820F55
:1009E000931F0996FC0180819181FC012181328154
:1009F0004381548189819A81AB81BC81BC01CD0145
:100A00000E944501DC01CB0189839A83AB83BC83BF
:100A100080912A018F5F80932A0180912A01282FDB
:100A200030E08F8198852817390780F289819A8173
:100A3000AB81BC81BC01CD010E9467000E94950082
:100A40001E821D829BC08D819E81880F991F9E01F1
:100A50002F5F3F4F820F931F0996FC018081918188
:100A6000FC0125813681478150858D819E81880FCB
:100A7000991FBE016F5F7F4F860F971F0996FC017C
:100A800080819181FC0181819281A381B4812817A9
:100A900039074A075B0709F045C08D819E81880FA1
:100AA000991F9E012F5F3F4F820F931F0996FC01F4
:100AB000008111818D819E81880F991F9E012F5F7A
:100AC0003F4F820F931F0996FC0180819181FC01A9
:100AD000218532858D819E81880F991FAE014F5FE0
:100AE0005F4F840F951F0996FC0180819181FC0165
:100AF0008081082E000C990BF9010995F80180837B
:100B00008D819E81880F991F9E012F5F3F4F820F1D
:100B1000931F0996FC0180819181FC011582168248
:100B2000178210868D819E81880F991F9E012F5FED
:100B30003F4F820F931F0996FC01208131818D81E7
:100B40009E81880F991FAE014F5F5F4F840F951FE5
:100B50000996FC0180819181FC0185819681A781A4
:100B6000B085C296A11DB11DF90185839683A78327
:100B7000B0878D819E8101969E838D832D813E81DC
:100B80008F8198852817390708F45DCF0000809180
:100B90001C018823E1F310921C0152CFA1E21A2E0E
:100BA000AA1BBB1BFD010DC0AA1FBB1FEE1FFF1F11
:100BB000A217B307E407F50720F0A21BB30BE40B61
:100BC000F50B661F771F881F991F1A9469F76095A8
:100BD0007095809590959B01AC01BD01CF01089562
:040BE000F894FFCFB7
:100BE400010000000000000200000000CD0200002F
:0C0BF400000007070707070707077F80BE
:00000001FF
