:100000000C9446000C9465000C9465000C946500FB
:100010000C9465000C9465000C9465000C946500CC
:100020000C9465000C9465000C9465000C946500BC
:100030000C9465000C94E3000C9465000C9465002E
:100040000C9465000C9465000C9465000C9465009C
:100050000C9465000C9465000C9465000C9465008C
:100060000C9465000C9465000C9465000C9465007C
:100070000C9465000C9465000C9465000C9465006C
:100080000C9465000C9465000C94650011241FBE4F
:10009000CFEFD0E4DEBFCDBF11E0A0E0B1E0E8E7F4
:1000A000FAE000E00BBF02C007900D92A431B10747
:1000B000D9F721E0A4E1B1E001C01D92A432B2075A
:1000C000E1F70E940D040C943A050C940000CF93C4
:1000D000DF9300D000D0CDB7DEB769837A838B83FE
:1000E0009C8389819A81AB81BC818093000190932C
:1000F0000101A0930201B09303018091000190914E
:100100000101A0910201B091030180931501909328
:100110001601A0931701B093180100000F900F90E3
:100120000F900F90DF91CF910895CF93DF93CDB7CC
:10013000DEB781E890E02BE0FC01208388E890E0C6
:100140002DE730E0FC01318320838FE690E022E050
:10015000FC01208384E890E0FC01118210828091F0
:10016000000190910101A0910201B09103018093DF
:10017000150190931601A0931701B09318018FE514
:1001800090E02FE530E0F90120812068FC01208318
:100190000000DF91CF910895CF93DF93CDB7DEB705
:1001A00081E890E0FC0110820000DF91CF9108957A
:1001B000CF93DF93CDB7DEB781E0809314010000C9
:1001C000DF91CF9108951F920F9200905F000F92E0
:1001D000112400905B000F922F933F934F935F93F6
:1001E0006F937F938F939F93AF93BF93EF93FF93FF
:1001F000CF93DF93CDB7DEB78091150190911601B3
:10020000A0911701B09118010197A109B10980933C
:10021000150190931601A0931701B09318018091D6
:10022000150190911601A0911701B0911801892B29
:100230008A2B8B2B91F40E94D80080910001909121
:100240000101A0910201B0910301809315019093E7
:100250001601A0931701B09318010000DF91CF9110
:10026000FF91EF91BF91AF919F918F917F916F918E
:100270005F914F913F912F910F9000925B000F90F3
:1002800000925F000F901F901895CF93DF93CDB72A
:10029000DEB72C970FB6F894DEBF0FBECDBF6D83CF
:1002A0007E838F83988729873A874B875C878D81E8
:1002B0009E81AF81B88529853A854B855C85BC01D7
:1002C000CD010E941805DC01CB0189839A83AB83A1
:1002D000BC8389819A81AB81BC81892B8A2B8B2B32
:1002E00029F489859A85AB85BC8511C089859A8555
:1002F000AB85BC858D839E83AF83B88789819A81C6
:10030000AB81BC8189879A87AB87BC87D0CFBC0182
:10031000CD012C960FB6F894DEBF0FBECDBFDF9196
:10032000CF910895CF93DF9300D01F92CDB7DEB762
:1003300089836A834B838B81882371F08A81282F7C
:1003400030E081E090E002C0880F991F2A95E2F723
:10035000982F8981892B0EC08A81282F30E081E077
:1003600090E002C0880F991F2A95E2F7982F909588
:10037000898189230F900F900F90DF91CF9108957D
:10038000CF93DF9300D0CDB7DEB789836A838A81AC
:10039000282F30E081E090E002C0880F991F2A9555
:1003A000E2F7982F898189230F900F90DF91CF91E9
:1003B00008950F931F93CF93DF93CDB7DEB708E275
:1003C00010E040E064E08FEF0E949201F80180832A
:1003D000000086E290E0FC018081809560E00E9450
:1003E000C001882311F081E3D3C086E290E0FC01D4
:1003F0008081809561E00E94C001882311F084E330
:10040000C7C086E290E0FC018081809562E00E9496
:10041000C001882311F087E3BBC086E290E0FC01B5
:100420008081809563E00E94C001882311F08AE2F8
:10043000AFC008E210E040E065E08FEF0E9492015B
:10044000F8018083000086E290E0FC0180818095C5
:1004500060E00E94C001882311F082E399C086E227
:1004600090E0FC018081809561E00E94C0018823BA
:1004700011F085E38DC086E290E0FC0180818095DB
:1004800062E00E94C001882311F088E381C086E207
:1004900090E0FC018081809563E00E94C001882388
:1004A00011F080E375C008E210E040E066E08FEFF5
:1004B0000E949201F8018083000086E290E0FC0136
:1004C0008081809560E00E94C001882311F083E361
:1004D0005FC086E290E0FC018081809561E00E942F
:1004E000C001882311F086E353C086E290E0FC014E
:1004F0008081809562E00E94C001882311F089E329
:1005000047C086E290E0FC018081809563E00E9414
:10051000C001882311F083E23BC008E210E040E014
:1005200067E08FEF0E949201F8018083000086E26D
:1005300090E0FC018081809560E00E94C0018823EA
:1005400011F081E425C086E290E0FC018081809575
:1005500061E00E94C001882311F082E419C086E2A4
:1005600090E0FC018081809562E00E94C0018823B8
:1005700011F083E40DC086E290E0FC01808180955B
:1005800063E00E94C001882311F084E401C080E090
:10059000DF91CF911F910F910895CF93DF9300D0FA
:1005A0001F92CDB7DEB789837B836A8389818A30C6
:1005B00031F48A819B81BC018DE00E94CD0280ECE8
:1005C00090E0FC018081882F90E080729927892B30
:1005D000B1F386EC90E02981FC01208380E090E07B
:1005E0000F900F900F90DF91CF910895CF93DF93ED
:1005F00000D0CDB7DEB79A83898389819A81823012
:10060000910509F44BC0833091052CF4009779F0E3
:10061000019791F0B7C08430910509F467C0843028
:1006200091050CF44FC0059709F474C0ABC081E08C
:1006300090E09A838983A6C080E290E0FC018081EB
:10064000882F90E081709927892B29F482E090E02F
:100650009A83898397C080E290E0FC018081882F93
:1006600090E084709927892B29F483E090E09A83A5
:10067000898388C080E290E0FC018081882F90E02F
:1006800082709927892B29F484E090E09A838983EA
:1006900079C081E090E09A83898374C080E290E021
:1006A000FC018081882F90E081709927892B29F4A3
:1006B00085E090E09A83898365C081E090E09A8329
:1006C000898360C080E290E0FC018081882F90E007
:1006D00084709927892B29F485E090E09A83898397
:1006E00051C081E090E09A8389834CC080E290E021
:1006F000FC018081882F90E084709927892B29F450
:1007000084E090E09A8389833DC081E090E09A8301
:10071000898338C080E290E0FC018081882F90E0DE
:100720008170992731E0892B09F430E080E290E074
:10073000FC018081882F90E08470992721E0892B2B
:1007400009F420E0832F8223282F30E080E290E01C
:10075000FC018081882F90E08270992741E0892BED
:1007600009F440E0842F90E082239323892B29F021
:1007700081E090E09A83898304C085E090E09A83C9
:100780008983000089819A818230910549F0833004
:1007900091054CF184309105E1F0049764F02AC092
:1007A000809112018E3F09F1809112018695806837
:1007B000809312011AC0809112018F37C1F080918D
:1007C0001201882F90E0880F991F81608093120199
:1007D0000EC080911301813061F0809113018695E4
:1007E0008093130106C0000005C0000003C0000094
:1007F00001C0000088E290E020911301FC012083F9
:100800008BE290E020911201FC01208389819A8182
:100810000F900F90DF91CF9108950F931F93CF9377
:10082000DF93CDB7DEB727970FB6F894DEBF0FBEC4
:10083000CDBF81E290E0FC01108282E290E02FEFD8
:10084000FC01208387E290E02FEFFC01208388E207
:1008500090E0FC0110828AE290E02FEFFC012083FF
:100860008BE290E0FC01108289E191E09F838E830E
:1008700081E090E09C838B838FEF8D831092190130
:1008800084E690E0A0E0B0E080931A0190931B0111
:10089000A0931C01B0931D0180911A0190911B013E
:1008A000A0911C01B0911D0180931E0190931F0126
:1008B000A0932001B093210186EF92E09093230151
:1008C0008093220164E670E080E090E00E9467007F
:1008D0000E9495001A8219829BC089819A81880F93
:1008E000991F9E012F5F3F4F820F931F0596FC01BA
:1008F00080819181FC0125813681478150858981E4
:100900009A81880F991FBE016F5F7F4F860F971FD7
:100910000596FC0180819181FC0181819281A381F6
:10092000B481281739074A075B0709F045C0898158
:100930009A81880F991F9E012F5F3F4F820F931F4F
:100940000596FC010081118189819A81880F991F88
:100950009E012F5F3F4F820F931F0596FC01808100
:100960009181FC012185328589819A81880F991FA7
:10097000AE014F5F5F4F840F951F0596FC0180818C
:100980009181FC018081082E000C990BF9010995D9
:10099000F801808389819A81880F991F9E012F5FBA
:1009A0003F4F820F931F0596FC0180819181FC01CE
:1009B000158216821782108689819A81880F991F65
:1009C0009E012F5F3F4F820F931F0596FC012081F0
:1009D000318189819A81880F991FAE014F5F5F4FE6
:1009E000840F951F0596FC0180819181FC01858112
:1009F0009681A781B085C296A11DB11DF90185839D
:100A00009683A783B08789819A8101969A83898387
:100A100029813A818B819C812817390708F45DCFA1
:100A20000000809114018823E1F31092140152CF49
:100A3000A1E21A2EAA1BBB1BFD010DC0AA1FBB1FE2
:100A4000EE1FFF1FA217B307E407F50720F0A21B54
:100A5000B30BE40BF50B661F771F881F991F1A94C1
:100A600069F760957095809590959B01AC01BD01EB
:080A7000CF010895F894FFCFB7
:100A7800010000000000000200000000CD0200009C
:040A880000007F806B
:00000001FF
